:100000000C940C150C9460150C9460150C946015F0
:100010000C9460150C9460150C9460150C9460158C
:100020000C9460150C9460150C94B64B0C948C4C8D
:100030000C94EC430C9460150C9460150C946015B2
:100040000C9460150C9460150C9460150C940D2B99
:100050000C9460150C9460440C9460150C9460151D
:100060000C9460150C9460150C9460150C9460153C
:100070000C9460150C9460150C9460150C9460152C
:100080000C9460150C9460150C9499260C946015D2
:100090000C9460150C946015E71BEC1BF11BFB1B0B
:1000A000331C051C0D1C151C1F1C291CDA1FDC1F12
:1000B000DE1FE01FE21FE41FE61FE81FF21FF41F10
:1000C000F61FF81FFA1FFC1FFE1F002002200E2043
:1000D000803A803ABA3ABA3AF93A4A3C4A3C4A3CFF
:1000E000193B4A3CC93BC93B3C3C4A3C4A3C443C2A
:1000F000D63BD63BD63BD63BD63BD63BD63BD63B78
:10010000D63BD63BD63BD63BD63BD63BD63BD63B67
:10011000E83BF63BFD3B043C0E3CD93CD93CEB3C78
:10012000EB3CE23CEB3CEB3CEB3CD93CD93CE73CC8
:10013000EB3CEB3CE73CFD4C244D164E244D164E5B
:10014000704D934D164EE94DF84D07634236B79BFF
:10015000D8A71A39685618AEBAAB558C1D3CB7CC27
:100160005763BD6DEDFD753EF6177231BF0000009F
:10017000803F05A84CCDB2D44EB93836A9020C50F8
:10018000B9918688083CA6AAAA2ABE000000803F32
:1001900008000000BE922449123EABAAAA2ABECD96
:1001A000CCCC4C3E00000080BEABAAAAAA3E000008
:1001B0000000BF000000803F000000000008417800
:1001C000D3BB4387D1133D190E3CC3BD4282AD2B37
:1001D0003E68EC8276BED98FE1A93E4C80EFFFBE2F
:1001E00001C4FF7F3F000000000000002A0054000F
:1001F0007D00AE00D80002012C0101020406080AAD
:100200000D1000000A01000A02000A03000A04009F
:100210000805000C0600080700010800010900019C
:100220000A00060BFF000C010C0D02000E010C0F62
:10023000010C10010C110006120006130006140038
:100240000615FC0016010C1700041800081900061A
:100250001A000A1B02001C010C1D02001E02001FD6
:10026000FE0020000A21020022FD0023000624FCDB
:100270000025000826000820000A20000A74FFFF5D
:100280000430FBCF8888784595CD6A4485AA686597
:1002900076888888685586A98A566587A8CB8A5645
:1002A00085BA8A78878888886655768856546566C0
:1002B0005655445466565565565486464496EEFF48
:1002C000ED441052D9EFBD584566868877A8BA9B91
:1002D000484453A7CBAB6855658799898888A99905
:1002E000887898A9997866879888686676888878E3
:1002F000676666666666767766676787776696B8C6
:10030000FFCBFB9A85737858BA9D998988446458C5
:1003100086A9AA88865854768788999A78886766C5
:1003200086889ACAAAA88886768889888967666531
:100330006565666666565555554477682B4475EA7B
:10034000FFACDAEE5A3265565576BACD8B879948AE
:100350002253776697AAAB8A667657447598889831
:10036000AABBAB8987885675888888886856555592
:10037000555555665666565555446566554454550B
:100380005576B9FDFFFFEEDECDAB68452332444420
:100390005576A9BABBABAA9A896855444454656698
:1003A0008798A9AAAA9AA9AAAA9A898888888866F1
:1003B0005555555545445455554544445455656621
:1003C0006787B9ECFFFFCF8A24013175DAFEFFCED3
:1003D0008A564454658899AAAABBBBAA8957455432
:1003E00075A8CBDDDDBC9A6856556587A9BBBB9A5D
:1003F0008866555566879899998867565535430795
:10040000E1A479BDE8FDDACFDBFB9AAB68964554F1
:1004100025524454566587769A98AA99AA89A9893B
:10042000886886686567857779A987AAAA9AA9984E
:100430008888676655555554554445543455557507
:10044000A8DBFEEFBE8B685554545555668799AAB4
:10045000ABAA8966555555657687889999999A9971
:10046000999888886867677776666666666666665E
:10047000666666666666666666666666555566663E
:10048000769AA6BBCBBBDEEDDDDDBCBCBA9A997813
:1004900068665655555555556665667677888888D9
:1004A0009899AAAAAABABAABAAAA998988686655DD
:1004B00055444444444444444454455565324334CB
:1004C000434455556576B9A89ABBCDDDDDEEEDDD2B
:1004D000DCBBAB99898866565545445455555565DE
:1004E000668788889999AAAABAABBBABBBBBAA9A04
:1004F0008988786656554444343333344355D7FF9E
:10050000BF4933676889A9DD8B242295AA9A899906
:10051000583454A7BB8A6866666597BAAB68557647
:100520009889988868567588896866666666768848
:1005300067565576677666776666566667999999BF
:100540007877776766777777989999A9AA9999992B
:100550007877776766777777989999A9AA8999992B
:1005600099AA9A999989777777667677778799990B
:1005700099AA9A999989777777667677778688980E
:1005800088888899898888889988889899888888A7
:10059000888888888888888878888777778888771F
:1005A000878888776666665655555566B8FEFFCECD
:1005B0009A89482401205566565555240088886834
:1005C000867897898876768889998868568799A9E0
:1005D0008966567688888978778888998868557575
:1005E000A99A8968556686A99A8856868888687502
:1005F0007798AA9889585566B9AB8A5865967878DD
:10060000B9B878897665784B87758BB576A8A94493
:100610005D498B8395781A6C7AC2B4557B85A8782E
:10062000988587C485853BB84778A4946887667A9F
:100630007A8967C8A6837BC5C1B49887B38899991E
:10064000A9DABCEDCDBBCCDCFDFFFFFFFFFFFFFF58
:10065000FFFFFFFFFFFFFF8C040000000000000011
:1006600000000010324513000000000000000000F0
:10067000000000101110111132545576769958650A
:100680008848A3AB76C94A21846944C74A52A9481D
:1006900072ED8B78552432F4CF10FB4F5498687468
:1006A0008856858956877876989999896876676596
:1006B00098784454B8AB6955768856659844557611
:1006C000B9DCFEFFDECDAB9A885645232243548623
:1006D00098A9AA9A99998988564544545566768767
:1006E00088989999A999AAAAAA9A89786666666645
:1006F0005655555566666656555555555545B6FF7A
:10070000A5FB6A84955673D969B88C56666744A66A
:100710008A96AA68657646759988A98A6776676514
:100720009788C99AA9A959658955988867664654D2
:10073000665586567656555665458758755595546F
:100740005C87A9A8ADBBBD9D9FABAB8A8B88884653
:100750004744554455546555878697889998A99973
:100760009A9899989A9999988A8888786866565537
:1007700045544454445554554445645447A458D5AD
:100780001FD78FD58FA58884349534B65AB76C8916
:100790008987556744875899899999888688658893
:1007A0009889AB9BB98986586555545567668866A4
:1007B00087555664467546845975897467766667A9
:1007C000667787778988898989A8999AA99ABA9A30
:1007D0009AA9898988798777676667767667777750
:1007E0008897899999AAA99AAAA99A99899987789B
:1007F000776777766667667787778988893AFB981F
:100800006CA9A55A89A858676755556656768876A3
:10081000868754554755856566888AA8AA89988928
:1008200067888998BAABBABCABAAAA78877866867B
:100830008887988877785655564454454444A6AAE4
:10084000BBCBBDBDABAABA9A898888886666666646
:10085000678778888888877777777788888899AA5C
:10086000AAAAAA99999988886666555555555555E5
:10087000555555555555655655555555456666F763
:10088000FF9E5B7488565475DBBD88467558456578
:10089000B7CB8A685676565487BAAB787766665671
:1008A00096DABD8B5675677676989A886665776610
:1008B0005666876655656656656677886795DBFF79
:1008C000FF4A020073FBFFAF48234275889998AA3C
:1008D000AA68252253B8EDBD69243275A9AB9A8860
:1008E00088A98967668789896967666666556686A5
:1008F0007866555555666666666666564567D7FFDF
:10090000ABCBAC892652875686BACB8B76884844C7
:1009100055768988B9AB88676666457598999999BF
:10092000BA8A8788787776988987887866556566E1
:10093000656666665665565565566666668B439768
:100940003B934C553F745958C803C726C318777A50
:1009500034C982A12B812D76A838787AE048A68305
:10096000473BA53A853B98648956B88883678727B3
:10097000770D735E72CC70D8444759985876878843
:100980009899AAAAAAAA998988887766665545413E
:10099000B7DCBE99B9BB8A454354552442657656A7
:1009A0005465776686CBEDCEBBBAAB996865667643
:1009B0008677878889887899999998999AB6755A87
:1009C0004B99B5585B89A6966888A6784A8BA5A5E9
:1009D0004A4BB7B47A4C87C3782C4BC5A43A5B9981
:1009E000958849B7B4688AA7B5784C9AA5785A878C
:1009F000B5785C6BA6785AA7B3582D89D565666A19
:100A000066A798666A66A7A6676668A66A67A798D3
:100A10006666A79AA586667768A69A596689A789A1
:100A2000656886A676688666AA68666A7686767A35
:100A300066A66A7A66A68A767A8A956AA689898976
:100A4000A8999AA99ABA9A9AA98989887987776779
:100A5000666776766777778897899999AAA99AAA17
:100A6000A99A99899987787767777666676677878D
:100A7000778988898989A8999AA99ABA9A88888849
:100A800088888888888888888888888888888888E6
:100A900088888888888888888888888888888888D6
:100AA00088888888888888888888888888888888C6
:100AB00088888888888888888888888888888887B7
:100AC000887986887686866666767898888A998810
:100AD00089797A8A9989A8989868888979787888AC
:100AE00086886768878785677A888A8B9AA999A993
:100AF00098A9A9A898A89686767678766667989930
:100B0000A9AA9AAA898878677667768788999AA920
:100B1000AA9999897777667677778888A9AAA9AA02
:100B20008988787777667677879999A9AA999A8933
:100B3000887766879999AAAAA99A888877D6FCCDDA
:100B40009C8888564476BAAB9989785644659899BA
:100B5000999989564564878898999968556586A9B1
:100B6000BBAB8A6856668788887856555555656642
:100B7000665666555556456587886655559889AABF
:100B800099AA898967776677768897A9A9AB999991
:100B90008778766776779789A99AB99999788866D8
:100BA00076668788A999AA999A88887667667786EB
:100BB00088989889AA99AA8989677766775587F46A
:100BC0008F958F23678675FB79B829537666B89C15
:100BD000788845658797AA898756557688998A685F
:100BE000665576AB98BA5865567699898868556681
:100BF00066988877665556666686578756213244CA
:100C0000446486AA9A77B9FDFFCDBACBCB8A5565E5
:100C1000A7AA8998B9CCAB68668878575597BAABBC
:100C20009A99AA9A6866869899DBFDFFDFAB898856
:100C3000685555768878566666563422320000002C
:100C400000000000000000000000000000000000A4
:100C50000000000000000000000000000000000094
:100C60000000000000000000000000000000000084
:100C700000000000000000000000000000FC0EF575
:100C80000E01F20EEF0E01EC0EE90E01E60EE10E82
:100C900001DF0EDC0E00D90ED60E01D30ECE0E01F2
:100CA000CB0EC80E01C50EC20E01C00EBD0E00BB9C
:100CB0000EB80E00B50EB20E01B00EAD0E00AA0EAB
:100CC000A70E01A50EA20E00A00E9D0E009B0E9871
:100CD0000E00960E930E00910E8E0E008C0E890E55
:100CE00000860E7F0E017D0E7A0E00770E740E01C7
:100CF000710E6E0E016C0E650E00630E600E005DCF
:100D00000E5A0E00570E540E01520E4F0E014C0E8D
:100D1000490E01460E430E00400E3B0E01380E31C7
:100D20000E012E0E270E01250E220E00200E1D0E86
:100D3000001B0E180E01160E130E00110E0E0E01E2
:100D40000B0E080E01050E020E00FF0DFC0D01F941
:100D50000DF60D00F30DEC0D00E90DE20D00DF0DB9
:100D6000D60D00D30DD00D01CD0DCA0D01C70DC29A
:100D70000D01BF0DBC0D01BA0DB70D00B40DAF0DC7
:100D800000AD0DAA0D01A80DA30D00A10D9C0D0035
:100D90009A0D950D0068396135003F00693961355C
:100DA000002E0061396132002C007A7A0020006147
:100DB000345633006A5F0061310025004339006119
:100DC0006900423955360069790067370075680057
:100DD0006637006568006132513161314F3100631F
:100DE00074006134563344370074720061325633F4
:100DF0004437006472006535007A68006438002F5B
:100E000075006334006468006235007468006139FD
:100E1000002F006035007A005F350066005E350007
:100E200073005D3100670061365C336131006368D7
:100E300000463955345432006F7900593952350023
:100E40006F77005C36007368005B39006572005A8A
:100E500038006F005938006F68005837006E78000E
:100E60005731006400613356336132006A005535F2
:100E700000697800553700696800543700790053DD
:100E800039553554320061790052370077005131BD
:100E9000006B004D310062004937006E0050310098
:100EA00070004F310074004E34002F68004C350044
:100EB00076004B37006168004A37006D0048370004
:100EC0006C00473700656500463900616F004537A3
:100ED0005236007577004538007578004437007247
:100EE00000413952360061770042390061610041AA
:100EF0003700616500613556324538006475780009
:100F0000C71BC21BBE1BB81BB21BAA1BA51BA21B67
:100F10009D1B971B921B8E1B8A1B7D1B771B6E1BB9
:100F20006A1B651B601B5B1B581B561B511B4C1B14
:100F3000451B401B3D1B3A1B371B321B2A1B241B26
:100F40001F1B181B121B0D1B081B031BFF1AFC1A6F
:100F5000F81AF31AEF1AEA1AE11AD21ACF1ACB1AB0
:100F6000C71AC41ABE1AB71AB31AAF1AA91AA21A04
:100F70009D1A9B1A961A911A8E1A8A1A851A821A23
:100F80007D1A781A731A6E1A681A611A5E1A5E1A36
:100F9000591A561A511A4A1A461A431A3E1A371A39
:100FA000331A2E1A281A221A1E1A191A161A131A66
:100FB000101A0C1A061A001AFB19F319F019F01975
:100FC000EB19E519E119DC19D719D019CC19C81991
:100FD000C319BD19B719B219AC19A719A2199A19D1
:100FE000961991198D19881984197F197B19761909
:100FF00072196E196A19651961195A195619511918
:101000004C19461941193A193719341930192A1946
:10101000261921191D191919141910190A1902195B
:10102000FE18F918F518EF18EB18E718E318DE1892
:10103000DA18D518D118CC18C718C218BD18B618A8
:10104000B218AF18AB18A518A2189C1897189118C9
:101050008D18881883187D187A18761872186E18EB
:101060006B18681864185D185918571853184E18DB
:101070004B184B18461840183C18381832182D18C1
:101080002718231820181E181B18161812180C18C9
:10109000081804180018FB17F717F417F017E917CA
:1010A000E517DF17DA17D317CE17CA17C517C017FA
:1010B000BB17B517B117AC17A717A2179E1799172B
:1010C000951792178F178B17881783177F17791724
:1010D0007617741770176A1766175F175B1757171D
:1010E00053174D17491744173F173A173717351736
:1010F000321730172C172A17271722171E17171702
:1011000013170F170B1709170517FD16F816F21608
:10111000EC16E616E316E016DC16D716D316CE1636
:10112000CB16CB16C816C816C516C316C116C116DF
:10113000BC16B616B316B116AD16A516A0169A169D
:101140009816981696169616941694169216921647
:101150008E168A16861681167C16781675167116E6
:101160006D166916661662165E16591656165116D3
:101170004E16491644163F163D163A1638163516C1
:101180003316331631162F162D162D162B162B1639
:101190002816261622161B161916191617161716B4
:1011A0001516151613161316111611160F160F16FF
:1011B0000D160D160B160B16091606160416041638
:1011C000021602160016FD15FA15F815F515EF159D
:1011D000EC15E915E615E215DF15DD15DA15D8155C
:1011E000D415D415D015CC15C915C915C615C215F9
:1011F000BF15BD15BA15B815B615B315B015B01590
:10120000AD15AB15A815A815A415A1159E159A1511
:1012100097159415911591158E158E158B158B15A7
:10122000891586158315831580157E157B157B150D
:10123000761570156C156915651560155D155B15CE
:1012400058155415511551154C154715401538159D
:1012500034152E1527151F151B1515150F150715F8
:101260000215FC14F514EE14E814E114D914D11489
:10127000CE14CC14C514BD14BA14B814B514B314D8
:10128000AC14A3149E14981492148B1485147E1419
:10129000771470146E146C1466145F145814501480
:1012A0004C1447144014381434142F142B142714DE
:1012B000231420141C141714141411140E140A14DB
:1012C000061402140014F713F513F013EE13E813C9
:1012D000E613DF13DD13D713D513CF13CD13C613C6
:1012E000C413BB13B913B413B213AC13AA13A813CA
:1012F000A613A413A213A0139E139E139C139C1356
:101300009A139A1398139813961395139313911392
:101310008F138D13891383137F13791375136F1331
:101320006B13661362135D13591353134F134A1350
:10133000461341133D133813204A415900204A5F98
:10134000002045484E00204E5F002045484D0020BB
:101350004D5F0020414135520020525F002045483A
:10136000460020465F00204959350020495F002093
:10137000415943480020485F00205345453500202F
:10138000435F0020424545350020425F002C002F7E
:10139000002C0021000027003F002E002C00200020
:1013A0002F002D003F003B002E003A004E495935DA
:1013B0004E003900415935540038005345483556E0
:1013C0002F554E003700534948364B5300360046E0
:1013D0004959355600350046414F355200340054C6
:1013E00048524545350033005455483457003200C3
:1013F000574F354E0031005A49483552344F570047
:101400003000534B5200534352004545350045418F
:1014100000415900455900504C495900504C590061
:101420004F52004F52520041485200555252004113
:101430004535520041525200204D4F57345354000D
:10144000204D4F53545F00414135520041525F00DF
:101450002044484548354E00205448454E5F002002
:10146000534148354D0020534F4D45004B0051002E
:101470002053414936440020534149445F004148CC
:1014800044484552004F5448455200205348454572
:101490003500205348455F0020504545340020501A
:1014A000454F00204F57354E4C454500204F4E4C80
:1014B000595F00470047470042004242002044482D
:1014C0004145364E00205448414E5F00440044449C
:1014D0000020444841493452002054484549525F55
:1014E00000202F4841455A00204841535F002044C6
:1014F000484159340020544845595F00205745451C
:1015000035002057455F00202044484958530020AB
:101510005448495300204249593300204259002081
:101520002F48414535560020484156455F002F4819
:101530004545360048455F00205749583544480026
:1015400020574954485F002041455A002041535FCD
:10155000004F59004F5935004F4900520052520078
:10156000414F3552004F4F5200205300205343004B
:10157000204958365A002049535F00415900500015
:101580005050004348004B530058004F48005A4801
:10159000005348004B57005155004E5847004E47E6
:1015A000004E58004E475F00444800540054540019
:1015B00054480045480045004B00434B004C004C4C
:1015C0004C00414F52004F520045520041495200D9
:1015D00045524500414952004E004E4E004D004DCF
:1015E0004D00454536004545005558004F4F0049D0
:1015F000485548340045550046005048002F4800E3
:1016000048004A004F0041480055004E004D00522E
:101610000059004C0056005A005300414F5249589F
:1016200034004F5249005A005A5A00460057004BA6
:101630000043004B0049480049004145004100205B
:101640004D495900204D595F0045523552005552C1
:10165000004948555700455700592F554C005541F2
:101660004C00455236004952004959340049474818
:10167000004159340041490059555700594F555FB1
:1016800000204A4959002047490057554800574F04
:101690004F004200500044004700204D45453500B2
:1016A000204D455F004958355A2F554D0049534D3F
:1016B00000520057520020574552350020574F52D4
:1016C00000540057005748004157004F5700204929
:1016D00059360020495F005A482F550053494F00A2
:1016E000454500595F002041413552002041524597
:1016F0005F0044482F5525005448455F0041494943
:101700005823454500412359004D004D425F0020BC
:1017100041590020415F00534849582F5500544912
:1017200041005345483400434500530043455F00A2
:1017300046004646005300535300204F35560020C4
:101740004F465F00414F344C00414C4C0057414FD5
:1017500036540057415400574F3500574841004117
:1017600059355A454500415A5900474F48345700AA
:1017700047484F002500455F004141365354004122
:101780005354004141344600414600414135004137
:10179000520049590059455F005348414800544997
:1017A0004F0042454535002042455F00414F524BB6
:1017B00000414C4B0020545558350020544F5F00D9
:1017C000414F3452004F52455F00574F5A00574126
:1017D000535F004E49582F554E004E494F4E002F33
:1017E000485548570057484F004958344A4948001F
:1017F00049474900544C00544C4500495934500065
:10180000595045002F554C004C455F004A4548351E
:101810004E0047454E004F483557004F41004A00A3
:1018200044470045455A00454153455F00462F5502
:101830004C004546554C5F002F554C00554C5F0001
:10184000465548345400464F4F54005548005548BB
:10185000354C00554C4C00530045535F0041593402
:1018600056495800415649004F57004F5F004F59A5
:1018700053004F494300414F350041550020574F19
:10188000344E00204F4E4500414F3552004F5552C7
:1018900000204157355200204F55520041453455E4
:1018A00058004F5500445548345700444F5F004E90
:1018B0004A004E47450050524F5734470050524F50
:1018C00047005349585A005345535F004441573429
:1018D00000444F5700454834520045525200504191
:1018E000573500504F57004E4157004E4F57002F6D
:1018F0004841573400484F57004755483400474F38
:101900004F00532543482F554E005354494F4E0026
:101910004E585A004E47535F004B415700434F57B4
:10192000005548354B004F4F4B0059555857230031
:10193000552349004545004945002059555857232E
:10194000002055234500434855572300545523454F
:101950000055585723005523410049485557352312
:1019600000552345004F573523004F23450041596B
:10197000230041234F0049593523004923450041A5
:1019800059362300412345004F573423004F23414C
:10199000004F573423004F234F00204548344E4515
:1019A000450020414E590055483544004F554C44A0
:1019B0005F004B41484D00434F4D455F0052415938
:1019C0003554005245415400415923004123410000
:1019D0004145344C454500414C4C59004159354432
:1019E00000494544002047454854002047455400DD
:1019F0002F55004159344E4A2F5500414E4745005E
:101A00004159344E4A00414E47455F004F5735001B
:101A10004F4500414800415F004149355200415265
:101A20004500534841454C005348414C4C004159F6
:101A3000352300412349004959542F554C0049543E
:101A40004C45004B5200434852004148422F554CF0
:101A50000041424C4500415900414947480049591D
:101A60000020415935424C002041424C45004F571F
:101A7000344C004F4C455F00202349590020234936
:101A800045004148004F55474800495935005559D0
:101A90000055483552005552455F004700475545AF
:101AA0005F0020594548355300205945535F005584
:101AB00057360055455F004649483453480047486B
:101AC0004F54490043480054434800534948004399
:101AD00049005355583450454535524948414F52B5
:101AE000005355504552494F52004959524F0049F1
:101AF000524F004F4A4545004F4759004B4E004357
:101B0000484E00205349590020534349004F48355F
:101B100057004F5547485F004548345245450045FA
:101B200052595F0020234148460020234F55474823
:101B30005F0049483453005953004B530058430049
:101B4000414F345400204F554748540023454559D0
:101B5000002345595F004E004B4E00414135460081
:101B600041554748004F573523004F2355004D49F5
:101B700059354B524F57004D4943524F004245454E
:101B800035252542454553454500424243004159CC
:101B90004A004147455F004E58474552004E474571
:101BA00052005448004754485F00202345453545BE
:101BB00052002023455245004959234545004923F9
:101BC00059002F553553004F55535F000000000258
:101BD00000080E0000030401000B00004A004D0045
:101BE0004B004E00290000003A003B003C003D0045
:101BF0003E00560053005400550035001E001F00E3
:101C000020002100220023005700610060005F00D7
:101C10002B0014001A000800150017001C0000001B
:101C20005E005D005C00390004001600070009003A
:101C30000A000B0058005B005A0059005200E100F6
:101C40001D001B0006001900050000006300620073
:101C5000500051004F00E000E300E20000000000EF
:101C60003F00400041004200430044004500460060
:101C700047004800490024002500260027002D00C9
:101C80002E002A00530054005500560018000C0086
:101C9000120013002F00300031005F00600061006F
:101CA00054000D000E000F003300340028005200D5
:101CB0005C005D005E00000011001000360037007F
:101CC0003800E500500059005A005B0058002C0015
:101CD0000000D85CE7006500E40051004F0062009E
:101CE000630000000100010001000100010000008C
:101CF00001000100010001000100D65C01000100AB
:101D0000D45C01000100010001000100010001009C
:101D1000D55C01000100010001000100010001008B
:101D200001000100010000000100010001000100AC
:101D3000010001000100010001000100D75C010069
:101D4000010001000100010001000100010001008B
:101D5000010000000100010001000100010001007C
:101D6000010001000000000001000100010001006D
:101D7000010001000100010001000100010001005B
:101D8000010001000100010001000100010001004B
:101D9000010001000100010001000100010001003B
:101DA000BA5C010001000100010001000100010016
:101DB000010001001F5C01000100010001000000A2
:101DC000010001000100010001000100BC5C0100F4
:101DD00001000100010001000000010001000100FC
:101DE00001000100BB5C01000100000001000100D6
:101DF00001000100010000000100010001000100DC
:101E000001000100010001000100010001000100CA
:101E100001000100010001000100010001000100BA
:101E200001000100010001000100010001000000AB
:101E3000010001000100010001000100010001009A
:101E4000010001000100010001000100010001008A
:101E5000010001000100010001000000010001007B
:101E6000010001000100010001000100000000006C
:101E7000010001000100010001000100010001005A
:101E8000010001000100010001000100010001004A
:101E9000010001000100010001000100010001003A
:101EA000010001000100010001000100010001002A
:101EB000010001000100010001000100010001001A
:101EC000010001000100000001000100010001000B
:101ED00001000100010001000100010001000100FA
:101EE00000000100010001000100010001000100EB
:101EF00001000000010001000100010001000000DC
:101F000001000100010001000100010001000100C9
:101F100001000100010001000100010001000100B9
:101F200001000100010001000100010001000100A9
:101F3000010001000100000001000100010001009A
:101F40000100010001000100010001000100010089
:101F50000100010001000100010001000100010079
:101F6000010000000100010001000100010001006A
:101F7000010001000000000001000100010001005B
:101F80000100010001000100010001000100010049
:101F90000100010001000100010001000100010039
:101FA0000100010001000100010001000100010029
:101FB0000100010001000100010001000100010019
:101FC000010001000100010001000100010000000A
:101FD00001000100010001000100010001000100F9
:101FE00001000100010001000000010001000100EA
:101FF00001000100010001000100000044454255BC
:10200000473A20656E61626C65642E0A000A0025FD
:1020100030313662003A200025303258000A722FE3
:102020006320303132333435363738394142434416
:1020300045460A00617564696F20706C6179206E95
:102040006F746520667265713D256420766F6C3D06
:10205000256400617564696F2073746F70206E6F02
:10206000746520667265713D256400617564696FF1
:102070002073746F7020616C6C206E6F74657300D8
:1020800054494D4552332064697361626C65642E16
:102090000A0054494D45523320656E61626C656497
:1020A0002E0A007267626C69676874207365742019
:1020B000687376205B454550524F4D5D3A2025753B
:1020C0002C25752C25750A007267626C6967687427
:1020D000207261696E626F77207365742068737611
:1020E0003A2025752C25752C25642C25750A00723F
:1020F00067626C696768742064697361626C653AD1
:10210000207267626C696768745F636F6E66696787
:102110002E656E61626C65203D2025750A00726730
:10212000626C6967687420656E61626C653A2072E2
:1021300067626C696768745F636F6E6669672E6556
:102140006E61626C65203D2025750A007267626CC5
:102150006967687420746F67676C653A207267629C
:102160006C696768745F636F6E6669672E656E6120
:10217000626C65203D2025750A007267626C696794
:102180006874206D6F64653A2025750A0072676275
:102190006C696768745F696E6974207267626C69E4
:1021A0006768745F636F6E6669672E6D6F64652024
:1021B0003D20302E20577269746520646566617514
:1021C0006C742076616C75657320746F2045455082
:1021D000524F4D2E0A007267626C696768745F69BE
:1021E0006E6974206565636F6E6669672069732028
:1021F0006E6F7420656E61626C65642E0A00726792
:10220000626C696768745F696E6974207374617267
:1022100074210A007267626C696768745F696E692D
:10222000742063616C6C65642E0A007267626C696D
:102230006768745F636F6E6669672E76616C203DB8
:102240002025640A007267626C696768745F636F57
:102250006E6669672E736174203D2025640A0072E2
:1022600067626C696768745F636F6E6669672E6822
:102270007565203D2025640A007267686C6967688F
:10228000745F636F6E6669672E6D6F6465203D20B5
:1022900025640A007267626C696768745F636F6EB9
:1022A0006669672E656E61626C65203D2025640A53
:1022B000007267626C696768745F636F6E666967F6
:1022C000206570726F6D0A006565636F6E66696781
:1022D0005F7570646174655F7267626C696768746A
:1022E0005F64656661756C740A006801F000B40093
:1022F00078005A007F3F1F643214643214783C1E09
:102300001E140A0500000000000101010101010185
:10231000010102020202020202020203030303039A
:102320000303030404040404040505050505060667
:1023300006060607070707080808080909090A0A20
:102340000A0A0B0B0B0C0C0C0D0D0D0E0E0F0F0FC4
:10235000101011111112121313141415151616174B
:1023600017181819191A1A1B1C1C1D1D1E1F1F20B7
:10237000202122222324252526272728292A2B2B02
:102380002C2D2E2F2F303132333435363637383925
:102390003A3B3C3D3E3F4041424344464748494A20
:1023A0004B4C4D4F50515253555657585A5B5C5EEB
:1023B0005F606263646667696A6C6D6E7071737486
:1023C0007678797B7C7E8081838486888A8B8D8FEA
:1023D00091929496989A9B9D9FA1A3A5A7A9ABAD16
:1023E000AFB1B3B5B7B9BBBDBFC1C4C6C8CACCCF06
:1023F000D1D3D6D8DADCDFE1E4E6E8EBEDF0F2F5B4
:10240000F7FAFCFF0A002530325820006B6579622C
:102410006F6172645F7265706F72743A20000A00B7
:1024200025303258006B6579626F6172645F736545
:10243000745F6C65643A200064656C5F6B65795FFE
:102440006269743A2063616E27742064656C3A2077
:10245000253032580A006164645F6B65795F626998
:10246000743A2063616E2774206164643A202530D9
:1024700032580A003F00433E20004C25640A007495
:10248000696D65725F72656164333228293A20256F
:1024900030346C580A006B65796D61705F636F6EE4
:1024A0006669672E6E6B726F3A2025580A006B655D
:1024B00079626F6172645F69646C653A2025580ABD
:1024C000006B6579626F6172645F70726F746F63C5
:1024D0006F6C3A2025580A00686F73745F6B6579DA
:1024E000626F6172645F6C65647328293A202558B5
:1024F0000A000A092D20537461747573202D0A0097
:102500004743433A20342E392E32204156522D4C27
:102510004942433A20312E382E3073766E20415690
:10252000525F415243483A2061767235310A004F7A
:102530005054494F4E533A204C554641204558542B
:1025400052414B455920434F4E534F4C4520434F2A
:102550004D4D414E44204E4B524F20313032340AC3
:10256000004255494C443A2022302E352E32363422
:102570002D3132362D676438623436612D646972CC
:10258000747922202832333A32373A32342041707B
:10259000722031372032303138290A005649443A06
:1025A0002030784331454428436C7565626F617211
:1025B0006429205049443A2030783233413028444D
:1025C0006F75626C65203138303029205645523A9B
:1025D000203078303030310A00444553433A205798
:1025E00068617420646F6573206974206D65616E25
:1025F0003F0A000A092D2056657273696F6E202DFF
:102600000A000A092D20436F6E736F6C65202D0A36
:102610004553432F713A09717569740A000A092DEF
:10262000204D61676963202D0A443A09446562754B
:1026300067204D65737361676520546F67676C65CC
:102640000A583A094D617472697820446562756769
:10265000204D6F646520546F67676C65202D205393
:10266000686F77206B657970726573736573206925
:102670006E206D617472697820677269640A4B3AE2
:10268000094B6579626F61726420446562756720E9
:10269000546F67676C65202D2053686F77206B65DA
:1026A000797072657373207265706F72740A4D3A37
:1026B000094465627567204D6F75736520546F67B7
:1026C000676C650A563A0956657273696F6E0A53EC
:1026D0003A095374617475730A433A094163746922
:1026E0007661746520436F6E736F6C65204D6F6407
:1026F000650A46312D4631303A095377697463686B
:1027000020746F204C6179657220302D3920284665
:102710003130203D204C30290A302D393A09537789
:102720006974636820746F204C6179657220302D64
:10273000390A4553433A0953776974636820746FC3
:10274000204C6179657220302028616C7465726E4E
:10275000617465206B65792031290A4752415645DD
:102760003A0953776974636820746F204C61796506
:102770007220302028616C7465726E617465206B04
:1027800065792032290A50415553453A094A756DF9
:102790007020746F20426F6F746C6F61646572207B
:1027A000285265736574290A4E3A094E4B524F20E0
:1027B000546F67676C650A003F004E4B524F3A20DA
:1027C0006F66660A004E4B524F3A206F6E0A000A3F
:1027D0006D6F7573653A206F66660A000A6D6F75D6
:1027E00073653A206F6E0A000A6B6579626F6172D9
:1027F000643A206F66660A000A6B6579626F6172DF
:10280000643A206F6E0A000A6D61747269783A202A
:102810006F66660A000A6D61747269783A206F6E9D
:102820000A000A64656275673A206F66660A000AE4
:1028300064656275673A206F6E0A000A0A4A756D10
:1028400070696E6720746F20626F6F746C6F616463
:1028500065722E2E2E2000433E20005B735D004BE0
:102860006579626F6172642073746172742E0A00FC
:102870005B575D005B535D005B525D005B445D0038
:102880005B435D00040330000000180344006F0048
:10289000750062006C0065002000310038003000D7
:1028A00030000000140343006C00750065006200F6
:1028B0006F00610072006400000004030904090253
:1028C0007400040100A0FA090400000103010100E2
:1028D0000921110100012240000705810308000AB7
:1028E0000904010001030000000921110100012277
:1028F00036000705820308000A09040200020300EB
:102900000000092111010001222200070583032094
:10291000000107050303200001090403000103006F
:10292000000009211101000122390007058403205C
:1029300000011201100100000008EDC1A0230100F8
:102940000102030105010906A101050719E029E7B4
:102950001500250195087501810205081901290551
:1029600095057501910295017503910105071900FF
:1029700029F71500250195F875018102C00631FF80
:102980000974A1010975150026FF009520750881BD
:10299000020976150026FF00952075089102C005F2
:1029A000010980A10185021601002603001A810099
:1029B0002A8300751095018100C0050C0901A10151
:1029C0008503160100269C021A01002A9C0275103C
:1029D00095018100C005010906A101050719E0293B
:1029E000E71500250195087501810295017508819B
:1029F00001050819012905950575019102950175D3
:102A00000391010507190029FF150026FF0095060F
:102A100075088100C000181611241FBECFEFD0E248
:102A2000DEBFCDBF04B603FE27C08091AB0F9091EF
:102A3000AC0FA091AD0FB091AE0F8730904BA74077
:102A4000B04BD1F41092AB0F1092AC0F1092AD0FAF
:102A50001092AE0F14BE84B7877F84BF0FB6F89470
:102A6000A89580916000886180936000109260005A
:102A70000FBEE0E0FEEF099514E0A0E0B1E0ECED60
:102A8000F5EA00E00BBF02C007900D92A430B10739
:102A9000D9F72FE0A4E0B4E001C01D92AB3AB20731
:102AA000E1F715E1CCE0D5E104C02197FE010E94D9
:102AB0009B52CB30D107C9F70E94D0480C94EC52FE
:102AC0000C940000FF93EF93E0910404F09105044F
:102AD000309709F00995EF91FF910895FC018591D8
:102AE000803011F0EFDFFBCF0895FF27E0E230E206
:102AF00047FF0CC0419597FF09C0EDE260957095C6
:102B000080959095611D711D811D911D27FF02C04B
:102B1000219530E350E2AA27660F771F881F991F7F
:102B2000AA1FA41710F0A41B63955A95A9F7AA3001
:102B300008F0A95FA05DAF93F3956115710581055C
:102B4000910541F7ED3211F4EF93F395F21718F474
:102B50003F93F395FBCF8F91B5DFFA95E1F7089599
:102B6000E991F9918591803021F0853219F0AADF41
:102B7000F9CF089520E0E89455915532C1F35033D0
:102B800011F4689455915A3348F4505390F3220F3E
:102B9000022E220F220F200D250FF4CF0EF42195C7
:102BA00089919991533619F3533729F1533559F1D6
:102BB000BC0188279927E8945C3621F48991999182
:102BC00068945591543639F446EF7EF077FF0DC086
:102BD0008FEF9FEF0AC055374AE039F0583540E192
:102BE00021F0523642E009F00895FF93EF937DDF24
:102BF000EF91FF91B7CFFF93EF93FC01819180306C
:102C0000B9F360DFFBCFFF93EF9368DFF1CFDF9382
:102C1000CF93CDB7DEB72596A3DFCF91DF9108958F
:102C2000BC0189E094E00C94721A80930904089521
:102C300065E670E089E094E00E94001765E670E0C8
:102C400086E094E00C9400176F7070E0FB01EE706A
:102C5000FF27E651FE4F2591349187339105A9F066
:102C60003CF48533910599F186339105F9F070C0F4
:102C70008536910509F44CC08636910509F458C093
:102C80008436910509F064C033C080918C00909126
:102C90008D002817390709F462C010928500109240
:102CA000840030938D0020938C00089580918A00D9
:102CB00090918B002817390709F451C010928500B4
:102CC0001092840030938B0020938A0008958091A5
:102CD0008800909189002817390709F440C01092A4
:102CE0008500109284003093890020938800089515
:102CF00080919C0090919D002817390781F11092D6
:102D000095001092940030939D0020939C000895AC
:102D100080919A0090919B002817390701F1109239
:102D200095001092940030939B0020939A00089590
:102D300080919800909199002817390781F010929E
:102D40009500109294003093990020939800089574
:102D500093E0660F771F9A95E1F70C94BB1B0895DB
:102D60006F927F928F929F92AF92BF92CF92EF928B
:102D7000FF920F931F93CF93DF931F92CDB7DEB7D0
:102D80004C0180E4689FB0011124CB0183589D4F12
:102D90003C0196E0299F5001112486E0089F8001A4
:102DA0001124E40E842F8F734E15D9F0F301E80F30
:102DB000F11DF4906F2D6C21C40149830E942416EB
:102DC000C5010E94B11BEF2DE295EF706E2F6C21B3
:102DD000C4010E942416C8010E94B11B49814F5FA3
:102DE000E1CF0F90DF91CF911F910F91FF90EF9066
:102DF000CF90BF90AF909F908F907F906F900895ED
:102E0000FC017283618327E02083FB01FF2784E0BC
:102E1000F595E7958A95E1F721A16F7081E090E043
:102E200001C0880F6A95EAF7822B81A308952F923B
:102E30003F924F925F926F927F928F929F92AF924A
:102E4000BF92CF92DF92EF92FF920F931F93CF9397
:102E5000DF93CDB7DEB72D970FB6F894DEBF0FBE68
:102E6000CDBF9D878C873B0160E170E07A836983E9
:102E7000512C412C20E030E040E050E0F301808113
:102E8000882309F4EBC00DE71CE0A12CB12C812CA8
:102E900080E090E0BA01645F7A4F1B01D901A4572A
:102EA000BB4FB90163577B4F7D836C83BD0162507B
:102EB00071097F836E836F5F7F4F79876887F80121
:102EC000E590F490630160E070E0F60191906F018D
:102ED000992099F0EFEBE90DEA3120F4E0E2E90DF9
:102EE000EB8301C09B82FB01EE0DFF1DE491FB8192
:102EF000FE1303C06F5F7F4FE8CF861797070CF074
:102F00005FC0F701E60FF71FE491E11159C0F80126
:102F10003296E590F490C101E218F3085C01A21822
:102F2000B308F701E80FF91FD490DD2029F0D49001
:102F3000FC01D192CF01F2CFF8013496E490F12C4C
:102F4000F0E3EF0EF11C5E2C4F2C8FEF8C93EC8195
:102F5000FD81108280ED890D8A3060F4E92DF0E06A
:102F6000E753FE4FE491EC93EC81FD81E082CB01CD
:102F7000019601C0CB01F0E3EF16F10471F0698115
:102F80007A81E616F70649F06C91EE81FF81608345
:102F900060E3E885F985608311C0F301E80FF91F4C
:102FA000319760816062603249F42115310521F06A
:102FB000EE81FF81608101C060E16C93882483947D
:102FC0000B5F1F4FFDE005391F0709F078CF5982CD
:102FD0004A82009731F5811024C0EC85FD858181FE
:102FE00092818733910509F45CC05CF485339105C7
:102FF00009F453C0C69709F05CC2809180008F7DB0
:1030000053C08536910509F452C08636910509F4FE
:1030100052C08436910509F04CC280919000877FA0
:103020004DC04A0D5B1D41375105B8F6F3E0AF16B0
:10303000B1047CF060E070E0FB01E20FF31FE457A5
:10304000FB4FA081A28313826E5F7F4F6A157B05C1
:1030500099F72A0D3B1D680E791E10CFFA01E45F27
:10306000FA4F8AE780838183828383834C5F5F4F3B
:10307000FA01E45FFA4F10824F5F5F4F403851050D
:10308000B9F78FEF20383105E0F4F901E457FB4F31
:10309000808311822E5F3F4FF5CF809180008F7724
:1030A00003C080918000877F8093800002C280915E
:1030B00090008F7D03C0809190008F778093900067
:1030C000F8C1EC85FD85818192818733910509F0F6
:1030D000A9C11092800088E592E0909387008093C8
:1030E000860081E180938100109285001092840017
:1030F00080918000886015C0C69769F53E9A10924D
:10310000800088E592E0909387008093860081E1BB
:10311000809381001092850010928400809180003D
:1031200080628093800017C084369105A1F41092CC
:10313000900088E592E0909397008093960081E15B
:1031400080939100109295001092940080919000CD
:103150008860809390008CEE80938E0587E080934A
:103160008D058FEC80938C05412C712C66E0662ECA
:10317000A72CB12CF501E45FFA4F8081882309F474
:103180002CCF8A3719F489E397EB47C1833209F4CE
:1031900046C190E081549109FC01EE0FFF1F8E0F94
:1031A0009F1FFC01EE5FFD4F8490FC01ED5FFD4F22
:1031B0009490FC01EC5FFD4F1491C5010196FC0158
:1031C000E45FFA4F208150EDF52EF20E71E0F71218
:1031D000FF0CF501E457FB4F5080DC01A457BB4FB7
:1031E0008C91882341F0803341F086E08F0D86304A
:1031F00021F0F82E02C03AE0532E150182E0280E8D
:10320000311CD101A457BB4F0C918381811101C0A6
:103210000AE092E099123DC0E6E0FE1611F011E0DE
:1032200001C01FE0FF0CFF0CFF2009F4F8C08091E3
:103230008E05282F2874285C880F80938E05909126
:103240008D0597FF03C08F5F80938E05990F909334
:103250008D0580918C0587FF03C09F5F90938D053E
:10326000880F26FD8F5F80938C05C12E2BE0E22E08
:103270000CE028E040918E05682DEC85FD8581816C
:1032800092810E94B0161F5F103109F41FE0FA947A
:10329000CBCF992021F08FE591E30E94B11BEC8503
:1032A000FD85D0804D0C540C11F455245394D02E30
:1032B000D40C11F4DD24D394F101E45FFA4F808142
:1032C000882311F08A3741F4F1E0FF1226C084EE22
:1032D0009CED0E94B11B21C0482F50E0113089F0B5
:1032E0009A0121543109F901EE0FFF1FE20FF31F7C
:1032F000EC5FFD4FE491F0E0E10FF11DF595E795EE
:103300001E2F41545109FA01EE0FFF1F4E0F5F1F90
:10331000FA01ED5FFD4FE491E11181E690E0815407
:103320009109FC01EE0FFF1FE80FF91FEE5FFD4F43
:103330004490481001C01F2D612F70E0CB0195957E
:103340008795009769F080589F4F0E948752362ECC
:1033500021E0F21208C03FEFECE05E2E50E405C021
:10336000312C3FEF01C030E850E280E0232E26945C
:103370002694251618F4222099F001C0252E7FE00E
:10338000C72EE22C052D252D482F682DEC85FD85B7
:10339000818192813B875A870E94B0165A853B856E
:1033A000503491F0E52EE2186FE0C62E0D2D2D2D34
:1033B000482F642DEC85FD85818192813B875A875A
:1033C0000E94B0165A853B853F3F31F0F11620F43C
:1033D0003319383C08F030E0FA94F110C7CF26E0FA
:1033E00030E0412CC901F901EE0FFF1FEA0DFB1D72
:1033F000E45FFA4F3081393619F4462C421A05C081
:10340000383619F43AEF432E420E01979C0151F7DA
:10341000F1E09F1204C08FE591E30E94B11B739409
:103420007394A6CE88339105BCF48533910509F0D9
:1034300063CE1092800088E592E09093870080939D
:10344000860081E1809381001092850010928400B3
:1034500080918000806865CE8536910599F4109240
:10346000900088E592E0909397008093960081E128
:10347000809391001092950010929400809190009A
:10348000806267CE8636910509F04ECE109290008C
:1034900088E592E0909397008093960081E1809375
:1034A0009100109295001092940080919000806895
:1034B00050CE2D960FB6F894DEBF0FBECDBFDF9174
:1034C000CF911F910F91FF90EF90DF90CF90BF9021
:1034D000AF909F908F907F906F905F904F903F90B4
:1034E0002F9008952F923F924F925F926F927F920A
:1034F0008F929F92AF92BF92CF92DF92EF92FF9204
:103500000F931F93CF93DF9300D000D01F92CDB7BE
:10351000DEB75C01E12CF12C8FEF9FEF9B838A8358
:1035200000E01FE01D821C82C12CD12C712C20E0F8
:1035300030E0F80145915491F801329685909490CD
:103540001982612C512C412C80E090E0FC01E40FA9
:10355000F51FE4912A803B80280E391EAFEF2A1612
:103560003A0629F0260E371ED101FC9101C0F0E287
:10357000AFE93A2E3F0EB9E1B31520F0F052E33235
:10358000D9F42BC0E33219F4F13428F519C0EF3522
:10359000A9F4FF23E9F0E0EEEF0FE230B0F0FC32E7
:1035A000B9F0E2EDEF0FE23080F0FF3389F0F7324F
:1035B00061F0FA33B9F40CC0EF3569F3EE23A9F0EA
:1035C000FF2399F0EF1761F010C0B1E0B98308C094
:1035D000A1E0A98305C0FB35A8F7682E592E4F2E10
:1035E0000196B4CF0197A1E0A983281739070CF001
:1035F00038C0FA01E80FF91FE491E11132C064010B
:10360000A7011D821C82F6012491222309F1233295
:1036100091F43196E491EE23A9F020E03FE0F90126
:1036200085909490F401A491A41163C03196E49123
:10363000E1115FC066C0FA01E45FFB4F20834F5F7A
:103640005F4F02C06C825D82BFEFCB1ADB0ADBCF1B
:10365000FA01E45FFB4F10826A01CE18DF089C017B
:1036600079800C5F1F4FE3E108331E0709F061CF3B
:10367000772011F0215031092115310509F459C085
:10368000EC0CFD1CF1E7EF16F1040CF052C08C813C
:103690009D81009709F09C01AA81BB81A20FB31FF5
:1036A000BB83AA83AF3FEFEFBE0709F439CFFD011B
:1036B000E60FF71F8081811133CF6CE074E0C50104
:1036C0000F900F900F900F900F90DF91CF911F915F
:1036D0000F91FF90EF90DF90CF90BF90AF909F90B1
:1036E0008F907F906F905F904F903F902F900C94B1
:1036F00017172C5F3F4FB3E128333B0709F08FCFFB
:10370000A3CFF9013296859094909A01245F3B4FA4
:10371000821A930AA9014C505440F401E20FF31F9E
:103720003490332009F490CFE491D901ED939D01B9
:10373000F1CF0F900F900F900F900F90DF91CF91DE
:103740001F910F91FF90EF90DF90CF90BF90AF90BF
:103750009F908F907F906F905F904F903F902F90B1
:103760000895019739F0880F991F880F991F0297C4
:103770000197F1F70895CF93DF93982F9F7021E081
:1037800030E001C0220F9A95EAF7C82FC295CF709A
:10379000D0E099A1922B99A36115710511F48AA12A
:1037A00066C06F3F710511F48AA164C0E82FF0E094
:1037B000E453F44EE4918E2F90E0FC013197EA300F
:1037C000F10508F050C0E45BFF4F0C949B5284B5A8
:1037D000806884BD67BD50C084B5806284BD68BD0B
:1037E0004BC0809180008068809380007093890036
:1037F0006093880041C08091800080628093800047
:1038000070938B0060938A0037C08091B00080680D
:103810008093B0006093B3002FC08091B0008062AD
:103820008093B0006093B40027C0809190008068BE
:103830008093900070939900609398001DC08091D0
:10384000900080628093900070939B0060939A0038
:1038500013C08091900088608093900070939D00C9
:1038600060939C0009C08AA1603871051CF4209502
:10387000282301C0282B2AA3DF91CF910895249AF1
:10388000259A269A85B7806885BF85B7806885BFE9
:103890000C94A5240C94A6240C940C1D80FF02C04B
:1038A0002C9A01C02C9881FF02C02D9A01C02D983E
:1038B00082FF02C02E9A08952E980895DC01FC0123
:1038C00001900020E9F73197E81BF90B9D01281BB7
:1038D000390B2E173F07B8F420918F0530919005D2
:1038E0004D91F901ED5EF44F40832F3F43E03407E3
:1038F00019F02F5F3F4F02C020E030E03093900579
:1039000020938F05DCCF08958091000190910101F3
:10391000873091055CF4019690930101809300013A
:10392000FC01EF52FC4F80810C9415160895809194
:10393000000190910101181619065CF4019790930B
:10394000010180930001FC01EF52FC4F80810C9437
:103950001516089540918F0550919005209191057D
:1039600030919205E2E1F7E080E090E0241735071E
:1039700099F0D901AD5EB44F6C9161932F3F63E034
:10398000360719F02F5F3F4F02C020E030E001966C
:10399000811564E0960751F7FC01EE5EF84F108246
:1039A00010929205109291051092900510928F0539
:1039B00082E197E00C9410169091930581E089279D
:1039C00080939305811108C0109292051092910581
:1039D0001092900510928F0508952FEF87EA91E6D7
:1039E000215080409040E1F700C000000895CF933F
:1039F000DF93FA012281222361F0EC010E945E1C18
:103A000080919305882329F0CE01DF91CF910C940A
:103A10001016DF91CF910895CF93AB0189319105B5
:103A200009F488C108F074C08E30910509F45AC1B8
:103A3000D8F58830910509F441C1C8F48530910565
:103A400009F432C140F4049709F0ACC164E070E0BD
:103A50008DE893E0A5C18630910509F42AC1079746
:103A600009F0A0C167E070E083E993E099C18B3071
:103A7000910509F42DC160F48930910509F423C141
:103A80000A9709F08FC16AE070E087E993E088C186
:103A90008C30910509F421C10D9709F083C16DE0C7
:103AA00070E08DE993E07CC18331910509F42EC16A
:103AB00090F48031910509F41FC108F418C18131D7
:103AC000910509F41EC1429709F06CC162E170E0F2
:103AD00087EA93E065C18631910509F421C160F45C
:103AE0008431910509F417C1459709F05BC165E17F
:103AF00070E08BE893E054C18731910509F415C15A
:103B0000489709F04FC168E170E081EB93E048C14C
:103B10008432910509F436C1A0F58E31910509F47E
:103B20001DC190F48B31910509F40EC108F407C151
:103B30008C31910509F40DC14D9709F033C16DE148
:103B400070E08BEB93E02CC18132910509F410C138
:103B500060F48F31910509F406C1809709F022C104
:103B600060E270E081EC93E01BC18232910509F4C0
:103B700004C1839709F016C163E270E087EC93E01B
:103B80000FC1843D2CE5920709F459C0C8F487326F
:103B9000910509F401C160F48532910509F4F7C07B
:103BA000869709F0FFC066E270E08DEC93E0F8C004
:103BB0008832910509F465C08C9709F451C0F2C0B0
:103BC000873DFCE59F0709F443C040F4853DECE5E3
:103BD0009E0769F1863D9C4511F1E4C0883D2CE5C6
:103BE000920741F0893D9C4509F0DCC0FB01C28190
:103BF00082E003C0FB01C28181E0CC2341F00E943E
:103C0000FE4043E061E082E00E94D81E1FC00E9497
:103C10001F4143E061E082E00E94D81EC4C0FB0166
:103C2000C281CC2309F4BFC00E94971C0FC0FB01C6
:103C3000C281CC2309F4B6C00E94841CB4C0FB012D
:103C4000C281CC2309F4AFC00E94DC1CC0E0ABC031
:103C5000FB01C281CC2309F4A5C00E94AA1CA3C009
:103C6000FB018281882309F49DC08FE793E00E94C5
:103C70005E1CC0919305CC2309F494C081E893E0C5
:103C800010C0FB018281882309F48CC08FE793E088
:103C90000E945E1CC0919305CC2309F483C087E881
:103CA00093E00E9410167FC065E070E08FE893E01B
:103CB00077C066E070E081E993E072C068E070E090
:103CC00085E893E06DC069E070E085E993E068C045
:103CD0006BE070E089E993E063C06CE070E08BE931
:103CE00093E05EC06EE070E08FE993E059C06FE052
:103CF00070E081EA93E054C060E170E083EA93E011
:103D00004FC061E170E085EA93E04AC063E170E092
:103D100089EA93E045C064E170E08BEA93E040C03B
:103D200066E170E08DEA93E03BC067E170E08FEA06
:103D300093E036C069E170E083EB93E031C06AE163
:103D400070E085EB93E02CC06BE170E087EB93E0D3
:103D500027C06CE170E089EB93E022C06EE170E077
:103D60008DEB93E01DC06FE170E08FEB93E018C026
:103D700061E270E083EC93E013C062E270E085ECF6
:103D800093E00EC064E270E089EC93E009C065E264
:103D900070E08BEC93E004C067E270E08FEC93E09E
:103DA0000E94F71CC1E08C2FCF91089581E0089507
:103DB000CF92DF92EF92FF920F931F9301E010E0FA
:103DC00020E030E06801790104C0CC0CDD1CEE1C61
:103DD000FF1C8A95D2F704C0000F111F221F331F4A
:103DE0006A95D2F70C291D292E293F29C090BC06BF
:103DF000D090BD06E090BE06F090BF06C022D12252
:103E0000E222F322842FC016D106E206F30641F423
:103E10001F910F91FF90EF90DF90CF900C94FE4098
:103E20001F910F91FF90EF90DF90CF900C941F4166
:103E30000E94992B0C943F1C0E942D2E0C944A1C1E
:103E40000C944E1CCF93DF930E94C73C0E94FB2D25
:103E50000E941E44EC0140E063E070E082E391E0E8
:103E60000E94172B0E94ED1CCE010E9436448A3F0F
:103E7000910538F48FE99FE00197F1F700C0000049
:103E8000F3CF0E940A2CDF91CF910C9486440F93BC
:103E90001F93CF93DF938C01FC01C081D181CE01B0
:103EA0000E949C41BE010E94F821EC01B8010E94D1
:103EB0004C1C882309F492C2B801CE010E94162638
:103EC000882309F48BC2B801CE010E94902E88236A
:103ED00009F484C2B801CE010E945624882309F453
:103EE0007DC2C23CFCE5DF0741F4F80182818823F2
:103EF00009F474C20E94F73271C2C33C8CE5D80742
:103F000008F02CC1CB3B9CE5D90761F4F801828114
:103F1000882309F463C20E944E428272E1F00E943B
:103F2000F3335CC2CC3BECE5DE07C0F0CE3B9CE556
:103F3000D90709F4E4C008F0F6C0CC3BFCE5DF0784
:103F400009F0E5C0F8018281882309F447C20E9484
:103F50004E42827221F30E94E93340C2C531FCE532
:103F6000DF0708F095C0C2308CE5D80708F466C0BA
:103F7000F8018281882309F46DC00E94E242811118
:103F800002C00E94BC420E94F54290E090939D0FB7
:103F900080939C0FFE01E350FC45E231F10530F4C3
:103FA000EA5AFF4F80919C0F0C949B5280919C0F7A
:103FB00081603BC0826039C0846037C0886035C092
:103FC000806133C0806231C080642FC080682DC0A2
:103FD0008460886080939C0F40E064E070E082E041
:103FE00091E019C08E7F21C08D7F1FC08B7F1DC0C7
:103FF000877F1BC08F7E19C08F7D17C08F7B15C038
:104000008F7713C08B7F877F80939C0F40E062E0A7
:1040100070E082E291E00E94172B09C087FB222703
:1040200020F991E0922790FB87F980939C0F809173
:104030009C0F0E94F9420E94C73CD0C1C1159CE56B
:10404000D90779F0C130DC45A1F081E08093990572
:1040500080939A05C801DF91CF911F910F910C9425
:10406000D61EF8018281882309F4B8C10E94221F5C
:10407000B5C1F8018281882309F4B0C18091E906B5
:1040800081608093E9068CEF9FE10E946E15A6C1C6
:10409000C531FCE5DF0739F50E944E42282FF801B3
:1040A000828140914F0350915003882379F02A7AFE
:1040B00091E009F490E090939405911102C069E2B7
:1040C00001C065E3CA010E9485430AC0809194053E
:1040D000811102C069E201C065E3CA010E949043F8
:1040E0000E941B427BC1CA3BDC4509F0AECFF80100
:1040F0008281882309F472C10E9450346FC1F80193
:104100008281882309F46AC10E94883267C1CD3B4D
:10411000DC4509F09ACFF8018281882309F45EC159
:104120000E9470325BC1F8018281C03CFCE5DF0770
:1041300031F4882309F452C10E94C2324FC1C13CFC
:10414000DC4530F4882309F449C10E94A73246C1F6
:10415000882309F443C10E94DC3240C1C93CECE52C
:10416000DE0749F4F8018281882309F437C188E128
:104170000E94303333C1CA3CFCE5DF0708F088C039
:10418000C53C8CE5D807B1F4F8018281882309F495
:1041900025C10E94E930663071058105910540F026
:1041A0000E94E930683071058105910508F4D3CE8D
:1041B00086E0DECFC63C9CE5D90728F5C33CECE59C
:1041C000DE0739F4F8018281882309F407C181E010
:1041D000CFCFC43CDC4509F038CFF8018281882379
:1041E00009F4FCC00E94E930623071058105910537
:1041F00040F00E94E930653071058105910508F4B1
:10420000AACE82E0B5CFF8018281C73CFCE5DF078A
:10421000A1F4882309F4E2C00E94E9306F307105EF
:104220008105910540F00E94E930643171058105F6
:10423000910508F490CE8FE09BCFC83CDC45A0F4FC
:10424000882309F4CBC00E94E930693071058105EB
:10425000910540F00E94E9306E30710581059105AD
:1042600008F479CE89E084CF882309F4B7C00E948E
:10427000E930653171058105910540F00E94E93012
:10428000673171058105910508F465CE85E170CF30
:10429000CE3CECE5DE0739F5F8018281882361F038
:1042A00010929A050E941E4490939805809397055A
:1042B00080E20E94333A92C080919A0581110FC02A
:1042C00080919705909198050E943644883C91050D
:1042D00030F487E20E94C53887E20E94D43980E238
:1042E0000E943A3A7BC0CF3CFCE5DF0708F041C0B2
:1042F000CA3C8CE5D807B1F4F8018281882309F41F
:104300006DC00E94E930693171058105910540F069
:104310000E94E930623271058105910508F41BCED7
:1043200089E126CFCD3CDC4509F08FCEF8018281B2
:10433000882351F0109299050E941E44909396058F
:104340008093950582E0B5CF8091990581110FC0CA
:1043500080919505909196050E943644883C910580
:1043600030F486E20E94C53886E20E94D43982E0A9
:10437000B7CFC23DECE5DE0731F4F8018281882336
:1043800069F180E009C0C33DFCE5DF0741F4F801B5
:104390008281882319F182E00E947A491FC0CF3CB4
:1043A000DC4509F052CEF8018281811179CF8091EC
:1043B0009A05811194CF80919705909198050E945C
:1043C0003644883C910508F08ACF80E20E943A3A50
:1043D00088E20E94C53888E20E94D43980E0DF91EB
:1043E000CF911F910F91089580E090E00895089576
:1043F0009BE0799FF001112494E8899FE00DF11D65
:104400001124E60FF11DEE0FFF1FE452F44E8591CB
:1044100094910895880F991FFC01E35FFF4D8591EA
:1044200094910895CF93DF930E94F8210E94B523C1
:10443000EC01811520E59207F0F5811530E4930732
:1044400008F018C1883E910500F5803E910508F0FE
:1044500088C1883A910570F4853A910508F09AC0B0
:104460008130910509F47DC108F434C1049708F046
:1044700078C130C18D3B910508F497C0803C91050F
:1044800008F428C1805C9109E7C08115904258F476
:10449000C11581E0D80708F064C1C03FD10508F418
:1044A00019C1D0655EC1C11590E3D90708F0D8C025
:1044B000CE019F70D1C0811525E5920708F043C059
:1044C000811534E5930708F0ECC0811542E59407A7
:1044D00008F5C11581E5D80708F0CFC02C2F23704F
:1044E00081E090E002C0880F991F2A95E2F79C684E
:1044F0009E0174E0369527957A95E1F72370922B0B
:10450000CF70C695C69530E2C39FE0011124C82B39
:10451000D92B27C1869586959E0123703327C11517
:10452000D34508F0AFC040E2849FC0011124C1E030
:10453000D0E002C0CC0FDD1F2A95E2F78C2B9D2B1B
:10454000EC01DC680EC1811529E5920778F481152C
:1045500038E5930708F0AAC08115964508F0BAC05F
:10456000CF71DD27DC2FCC27D062FBC0C1158AE5D7
:10457000D80708F4A0C0CE0190568115904208F0EB
:10458000A9C08D2F8F710E943224DD27D0628F71D8
:10459000D82BE7C0853A910509F49FC0863A91056A
:1045A00009F09EC0C2E8D0E4DCC0883A910509F465
:1045B0009AC0893A910509F499C08A3A910509F49B
:1045C00098C08B3A910509F497C08C3A910509F48B
:1045D00096C08B3B910509F495C08C3B910509F47D
:1045E00094C08D3A910509F493C0803B910509F47C
:1045F00092C08E3A910509F491C08F3A910509F461
:1046000090C0813B910509F48FC0823B910509F46C
:104610008EC0833B910509F48DC0843B910509F45C
:104620008CC0853B910509F48BC0863B910509F44C
:104630008AC0873B910509F489C0883B910509F43C
:1046400088C0893B910509F487C08A3B910509F42C
:1046500086C0C0E0D4E485C00E940A22EC0181C07B
:10466000CE019927D3FF03C0EC01D86C7AC0EC01CE
:10467000D06C77C0DF70D06A74C0DC2FCC27C16FDC
:10468000D06A6FC040E2849FC0011124C1E0D0E035
:1046900002C0CC0FDD1F2A95E2F7C82BD92BDA68B0
:1046A00060C0D82FCC27C46FD06A5BC0D82FCC276E
:1046B000C06FD06A56C08C2F8F70806E90E0906A69
:1046C00024E0D695C7952A95E1F7CF709C013C2B45
:1046D000E90147C0C0E0D0E044C0C1E8D0E441C037
:1046E000C3E8D0E43EC0C2EED4E43BC0C9EED4E49B
:1046F00038C0CAEED4E435C0C5EBD4E432C0C6EB52
:10470000D4E42FC0C3EBD4E42CC0C4EBD4E429C060
:10471000C7EBD4E426C0CCECD4E423C0CDECD4E485
:1047200020C0C3E8D5E41DC0CAE8D5E41AC0C2E978
:10473000D5E417C0C4E9D5E414C0C1E2D6E411C081
:10474000C3E2D6E40EC0C4E2D6E40BC0C5E2D6E4B0
:1047500008C0C6E2D6E405C0C7E2D6E402C0CAE299
:10476000D6E4CE01DF91CF9108958238910549F1C9
:10477000B0F48133910509F458C048F489329105A9
:1047800009F44EC08A32910509F454C00895853366
:10479000910509F440C08933910599F00895833E4D
:1047A000910529F138F4803E910591F0823E910502
:1047B000A1F00895863E9105F9F0873E910531F10B
:1047C000089520919C0F20FD3AC021FD38C0089526
:1047D00080919C0F80FD35C032C080919C0F82FF7C
:1047E00032C080919C0F84FD30C083EE39C080912F
:1047F0009C0F82FD28C0F5CF80919C0F83FF27C0BE
:1048000080919C0F84FD21C087EE2AC080919C0F6F
:1048100083FD1DC0F5CF80919C0F85FD1AC01BC084
:1048200080919C0F85FD17C014C080919C0F86FD60
:1048300014C015C080919C0F86FD11C00EC080EE83
:104840000FC089E30DC082EE0BC080E009C086EE88
:1048500007C089E205C085E303C08AE201C081E3A5
:1048600090E0089590919C0F92FF0DC0282F287121
:10487000283019F4877F846006C0282F24712430E3
:1048800011F48B7F886093FF0DC0282F2871283189
:1048900019F4877E846106C0282F2471243111F415
:1048A0008B7E886194FD877E089508950F931F93F2
:1048B000CF93FB012281211102C0C1E041C08C01D4
:1048C000C091A805C11125C086319C45B1F70E9451
:1048D000552481E08093A8050E941E449093A7056B
:1048E0008093A60510929B0510929D0510929C0541
:1048F00010929F0510929E051092A1051092A0059E
:104900001092A3051092A2051092A5051092A4057D
:1049100017C08091A6059091A7050E943644883C57
:10492000910558F690919B05E92FF0E0EE0FFF1FDF
:10493000E456FA4F118300839F5F90939B05C0E07C
:104940008C2FCF911F910F9108950895089585B7E9
:10495000806885BF85B7806885BFA9EDB3E041E079
:1049600050E02BE02A0F8D91E82FE295EF70F0E0F8
:1049700031A18F70BA0102C0660F771F8A95E2F7E6
:10498000CB01962F9095932391A392A1892B82A37B
:104990002A13E9CFA4EEB3E041E050E02CE02A0F67
:1049A0008D91E82FE295EF70F0E031A18F70BA01A0
:1049B00002C0660F771F8A95E2F7CB01962F90957C
:1049C000932391A392A1892B82A32A13E9CFE1EC2F
:1049D000F5E0A9EAB5E0119211921D921D9275E0E1
:1049E000E93DF707C1F70C94181F2F923F924F92A1
:1049F0005F926F927F928F929F92AF92BF92CF926F
:104A0000DF92EF92FF920F931F93CF93DF9300D02B
:104A100000D0CDB7DEB789EDE82E83E0F82E1A82FC
:104A20001982CC24C394D12C22242394D7018D91B4
:104A30007D01E82FE295EF70F0E091A18F705601B3
:104A400001C0AA0C8A95EAF7892F8A2981A382A13D
:104A50005A2C5094852182A3B0EABA95F1F7A601A9
:104A6000098002C0440F551F0A94E2F73A0160948E
:104A7000709464EE73E009EA15E01C830B83312C1B
:104A80008B809C80D4018D919C91DB014D90BD0168
:104A9000242D22952F7030E0D90190962C9130E092
:104AA000B42DBF7002C035952795BA95E2F720FD69
:104AB00005C09C01242B352BD40105C09C01262167
:104AC0003721AB81BC812D933C932B813C812E5FA0
:104AD0003F4F3C832B83D4012D913C918217930748
:104AE00011F0332433942B813C81215C354041F615
:104AF00081A1582251A282A1A82AA2A2332041F06A
:104B00002092D9050E941E449093DB058093DA051C
:104B100029813A812F5F3F4F3A8329832B3031051A
:104B200009F084CF8091D9058823B1F08091DA050E
:104B30009091DB050E943644069770F0E1ECF5E0B9
:104B4000D8018D919D918D0181939193B5E0013CA8
:104B50001B07B1F71092D9050E941C1F81E00F902E
:104B60000F900F900F90DF91CF911F910F91FF90B9
:104B7000EF90DF90CF90BF90AF909F908F907F90FD
:104B80006F905F904F903F902F900895E82FF0E046
:104B9000EE0FFF1FEF53FA4F808191810895CF925E
:104BA000DF92EF92FF920F931F93CF93DF938DE1EC
:104BB00090E20E946E1581ECE82E85E0F82EC0E0B0
:104BC000D0E098E1C92E90E2D92E0FE010E2DF93F9
:104BD000CF93DF92CF920E94071685E190E20E9468
:104BE0006E15F701819191917F010E94A2429F93DE
:104BF0008F931F930F930E9407168DE090E20E94FF
:104C00006E1521968DB79EB708960FB6F8949EBF85
:104C10000FBE8DBFCC30D105D1F6DF91CF911F9162
:104C20000F91FF90EF90DF90CF900895FB018D31B1
:104C30002CE5920731F482818823A1F10E94AD2DE9
:104C40002FC08E312CE5920731F48281882351F1F7
:104C50000E94BD2D25C08F312CE5920741F4828141
:104C6000882301F10E94A92D8111F2CFE7CF843270
:104C70002CE5920731F482818823A1F00E94D62D81
:104C800008C085329C4571F48281882359F00E94C6
:104C9000D92D40E064E070E08AE491E00E94172B97
:104CA00080E0089581E00895682F70E065547109EF
:104CB000072E000C880B990B0E949F4F20E030E0DC
:104CC00040E451E40E94BB4E9B01AC0160E070E007
:104CD00080E090E40E945E5120E030E04CED53E42F
:104CE0000E94F1504FE050E00C941B2D682F70E0B3
:104CF00065547109072E000C880B990B0E949F4F79
:104D000020E030E040E451E40E94BB4E9B01AC0146
:104D100060E070E080E090E40E945E5120E030E0CE
:104D20004CED53E40E94F1500C945B2C0C940A2C33
:104D300008951F920F920FB60F9211240BB60F9287
:104D40004F925F926F927F928F929F92AF92BF929B
:104D5000CF92DF92EF92FF922F933F934F935F9307
:104D60006F937F938F939F93AF93BF93CF93DF9373
:104D7000EF93FF938091EF05882309F4DAC2C09185
:104D80003106D09132061C161D060CF0D2C2C1307D
:104D9000D10509F433C120E030E0A9016091DF05BD
:104DA0007091E0058091E1059091E2050E94B64E78
:104DB0008111D5C08091A2012297882309F4B4C043
:104DC000C0902706D0902806E0902906F0902A0689
:104DD00020E030E0A901C701B6010E94B64E882349
:104DE00009F4A2C0FE01EE0FFF1FEE0FFF1FEB5FE5
:104DF000F94F80809180A280B380A5019401C70102
:104E0000B6010E94B64E87FF31C0A501940160E053
:104E100070E08CED93EC0E94BB4E20E030E040E46B
:104E200051E40E94BB4E20E030E040E05FE30E948E
:104E3000F1509B01AC0160E070E080E090E40E94E2
:104E40005E519B01AC01C501B4010E94F1509B0170
:104E5000AC01C701B6010E94B64E87FF07C0A7018B
:104E6000960160E070E08CED93E439C0A5019401F7
:104E7000C701B6010E94765018160CF055C0A50166
:104E8000940160E070E08CED93E40E94BB4E20E062
:104E900030E040E451E40E94BB4E20E030E040E0CE
:104EA0005FE30E94F1509B01AC0160E070E080E0A4
:104EB00090E40E945E519B01AC01C501B4010E94C7
:104EC000F1509B01AC01C701B6010E947650181643
:104ED0005CF5A701960160E070E08CED93EC0E9418
:104EE000BB4E20E030E040E451E40E94BB4E20E0A5
:104EF00030E040E05FE30E94F1509B01AC0160E0D4
:104F000070E080E090E40E945E519B01AC01C7011B
:104F1000B6010E94F1506093270670932806809393
:104F2000290690932A0612C0CC0FDD1FCC0FDD1F7F
:104F3000CB5FD94F88819981AA81BB818093270655
:104F400090932806A0932906B0932A06609127061D
:104F5000709128068091290690912A0603C060E08E
:104F600070E0CB012091DC053091DD052F3F4FEF44
:104F7000340731F02F5F3F4F3093DD052093DC0580
:104F80000E94DC2D6B017C0120E034E244EF51E40F
:104F90000E94B64E87FF08C056EFC52E58E2D52EA8
:104FA00054EFE52E51E4F52E20E030E040E051E4EE
:104FB000C701B6010E94F1509B01AC0160E074E2B0
:104FC00084E79BE40E94BB4E6B017C010E946E4F04
:104FD00070938700609386002091A3013091A40113
:104FE0004091A5015091A601C701B6010E94F15060
:104FF0000E946E4F70938D0060938C004090DF058F
:105000005090E0056090E1057090E20520E030E00E
:10501000A901C301B2010E947650C0913106D0911E
:10502000320618160CF065C0C230D1050CF452C01F
:1050300080912F0690913006BE010E9487527C011C
:105040009093300680932F068090F1059090F205A2
:10505000A090F305B090F40520E030E040E85FE375
:10506000C501B4010E944A4E6093F1057093F205A8
:105070008093F3059093F405F701EE0FFF1FEE0FF9
:10508000FF1FEB5FF94FA301920160817181828163
:1050900093810E94BB4E20E030E040E05EE30E943E
:1050A000F1509B01AC01C501B4010E947650181665
:1050B0008CF4C7010196BE010E948752909330067E
:1050C00080932F061092F1051092F2051092F305CD
:1050D0001092F405E0912F06F0913006EE0FFF1FBD
:1050E000EE0FFF1FEB5FF94F608171818281938129
:1050F000D4C08091A201882309F4B4C0C0902B06CB
:10510000D0902C06E0902D06F0902E0620E030E0A6
:10511000A901C701B6010E94B64E882309F4A2C0B6
:10512000FE01EE0FFF1FEE0FFF1FEF5FF94F8080B4
:105130009180A280B380A5019401C701B6010E94AD
:10514000B64E87FF31C0A501940160E070E08CEDA0
:1051500093EC0E94BB4E20E030E040E451E40E941A
:10516000BB4E20E030E040E05FE30E94F1509B0145
:10517000AC0160E070E080E090E40E945E519B0131
:10518000AC01C501B4010E94F1509B01AC01C70103
:10519000B6010E94B64E87FF07C0A701960160E0E6
:1051A00070E08CED93E439C0A5019401C701B6010C
:1051B0000E94765018160CF055C0A501940160E0CD
:1051C00070E08CED93E40E94BB4E20E030E040E4C0
:1051D00051E40E94BB4E20E030E040E05FE30E94DB
:1051E000F1509B01AC0160E070E080E090E40E942F
:1051F0005E519B01AC01C501B4010E94F1509B01BD
:10520000AC01C701B6010E94765018165CF5A701E3
:10521000960160E070E08CED93EC0E94BB4E20E0C4
:1052200030E040E451E40E94BB4E20E030E040E03A
:105230005FE30E94F1509B01AC0160E070E080E010
:1052400090E40E945E519B01AC01C701B6010E942F
:10525000F15060932B0670932C0680932D0690934B
:105260002E0613C0FE01EE0FFF1FEE0FFF1FEF5FB4
:10527000F94F80819181A281B38180932B06909315
:105280002C06A0932D06B0932E0660912B067091EC
:105290002C0680912D0690912E062091DC053091F0
:1052A000DD052F3F4FEF340731F02F5F3F4F309335
:1052B000DD052093DC050E94DC2D6B017C0120E0E4
:1052C00034E244EF51E40E94B64E87FF08C086EFF7
:1052D000C82E88E2D82E84EFE82E81E4F82E20E054
:1052E00030E040E051E4C701B6010E94F1509B015B
:1052F000AC0160E074E284E79BE40E94BB4E6B016A
:105300007C010E946E4F70939700609396002091ED
:10531000A3013091A4014091A5015091A601C701BC
:10532000B6010E94F1500E946E4F70939D006093F1
:105330009C008091F005882309F446C1C090EB05DC
:10534000D090EC05E090ED05F090EE0520E030E027
:10535000A901C701B6010E9476501816D4F58091B4
:10536000DC059091DD058F3F2FEF920729F0019624
:105370009093DD058093DC05C701B6010E94DC2D0A
:1053800020E030E040E051E40E94F1509B01AC018C
:1053900060E074E284E79BE40E94BB4E6B017C01F9
:1053A0000E946E4F70939700609396002091A30126
:1053B0003091A4014091A5015091A601C701B60109
:1053C0000E94F1500E946E4F70939D0060939C006C
:1053D00008C0109297001092960010929D001092B3
:1053E0009C006091E5057091E6056F5F7F4F7093BB
:1053F000E6056093E505209196003091970080E0E6
:1054000090E0232B71F12091E40521112AC0C09175
:105410009600D09197000E949D4F6B017C01BE01C8
:1054200080E090E00E949D4F9B01AC016091E705F8
:105430007091E8058091E9059091EA050E94BB4EC4
:1054400020E03FEF4FE757E40E94F15020E030E0CA
:1054500040E85FE30E94494E9B01AC01C701B601E1
:105460000AC00E949D4F2091E7053091E8054091C8
:10547000E9055091EA050E94765087FDA5C080910C
:10548000E3058F5F8093E30590E02091130F309147
:10549000140F82179307A0F080911A0F882319F038
:1054A0001092E3050DC080917100877F8093710099
:1054B00080919000837F809390001092F0058CC0C3
:1054C0009091E4058091E305E091150FF091160F9E
:1054D000911137C091E09093E40581508093E305EA
:1054E00048E0849FE00DF11D1124C080D180E2804E
:1054F000F3802085318542855385C701B6010E941E
:10550000B64E811109C01092EB051092EC05109275
:10551000ED051092EE0508C0C092EB05D092EC05A7
:10552000E092ED05F092EE0580E090E0A0E8BFE3A8
:105530008093E7059093E805A093E905B093EA0509
:105540003FC01092E4051092DD051092DC0598E052
:10555000899FE00DF11D112480819181A281B38189
:105560008093EB059093EC05A093ED05B093EE05C9
:1055700020E030E040E85EE36481758186819781B8
:105580000E94F1506B017C018091A701682F70E0AF
:1055900080E090E00E949D4F20E030E048EC52E433
:1055A0000E94BB4E9B01AC01C701B6010E94F150A5
:1055B0006093E7057093E8058093E9059093EA0509
:1055C0001092E6051092E5058091170F80FD04C04A
:1055D0001092F0051092EF05FF91EF91DF91CF91BE
:1055E000BF91AF919F918F917F916F915F914F91FB
:1055F0003F912F91FF90EF90DF90CF90BF90AF90B1
:105600009F908F907F906F905F904F900F900BBE08
:105610000F900FBE0F901F9018951F920F920FB60C
:105620000F9211240F900FBE0F901F901895CF92DC
:10563000DF92EF92FF92CF93DF93EC016B01F42E98
:105640008091DE05811102C00E94992B8091170F75
:1056500080FF68C080917100877F80937100809186
:105660006F00877F80936F008091EF0581110E940A
:105670000A2C81E08093F005D093160FC093150F8C
:10568000D092140FC092130FF0921A0F1092F105DE
:105690001092F2051092F3051092F4051092E305B2
:1056A00088819981AA81BB818093EB059093EC0559
:1056B000A093ED05B093EE0520E030E040E85EE316
:1056C0006C817D818E819F810E94F1506B017C01F4
:1056D0008091A701682F70E080E090E00E949D4FCC
:1056E00020E030E048EC52E40E94BB4E9B01AC014C
:1056F000C701B6010E94F1506093E7057093E80579
:105700008093E9059093EA051092E6051092E5056D
:105710008091710088608093710080919000886012
:1057200080939000DF91CF91FF90EF90DF90CF902A
:1057300008950F931F93CF93DF930E94E24281114C
:1057400002C00E94BC420E94FE428093170F8091CB
:10575000DE0581114BC03C9A80917100877F809358
:105760007100279A80916F00877F80936F0002E01D
:10577000009390001AE110939100C1ECD1E1D09315
:105780009700C093960023EA3BE04EE855E4609111
:10579000A3017091A4018091A5019091A6010E949E
:1057A000F1500E946E4F70939D0060939C00009397
:1057B000800010938100D0938700C093860023EA75
:1057C0003BE04EE855E46091A3017091A401809103
:1057D000A5019091A6010E94F1500E946E4F709316
:1057E0008D0060938C0081E08093DE058091170F1F
:1057F00080FF0BC040E063E070E08AE891E0DF9159
:10580000CF911F910F910C94172BDF91CF911F9186
:105810000F9108958091E90680FF08C08BE690E221
:105820009F938F930E9407160F900F908091DE0533
:10583000811102C00E94992B1092320610923106FB
:1058400080917100877F8093710080919000837FA9
:105850008093900080916F00877F80936F0080918C
:105860008000837F809380001092F0051092EF05F6
:1058700010922B0610922C0610922D0610922E06D6
:1058800010922706109228061092290610922A06D6
:105890001092260610922506E5E0F6E0A5EFB5E0A9
:1058A00011921192119211921D921D9286E0E53291
:1058B000F807B1F70895CF92DF92EF92FF920F931E
:1058C0001F93CF93DF936B017C018091E90680FFEA
:1058D00010C0C701B6010E94674F7F936F9383E5A5
:1058E00090E29F938F930E9407160F900F900F9056
:1058F0000F908091EF05882309F494C08091DE0514
:10590000811102C00E94992B05E216E0C7E0D0E0A9
:10591000A7019601F80192918291729162918F0193
:105920000E94B64E811131C0FE01EE0FFF1FEE0F37
:10593000FF1FEB5FF94F1082118212821382DE018A
:10594000AA0FBB1FAB50BA4F11961C921E92C730C4
:10595000D105E9F0219644815581668177814083A4
:105960005183628373831482158216821782129682
:105970008D919C91139711969C938E9313961C92E4
:105980001E92129734961296E2CF219708F68091D4
:10599000310690913206019797FD05C0909332062B
:1059A0008093310604C01092320610923106809125
:1059B00031069091320620912F063091300628173B
:1059C000390724F01092300610922F06892B51F5DA
:1059D00080917100877F8093710080919000837F18
:1059E0008093900080916F00877F80936F008091FB
:1059F0008000837F8093800010922B0610922C06EB
:105A000010922D0610922E0610922706109228064C
:105A10001092290610922A06109226061092250648
:105A20001092EF05DF91CF911F910F91FF90EF90B2
:105A3000DF90CF900895CF92DF92EF92FF92CF93B5
:105A4000DF936B017C01D42FC52F8091E90680FF85
:105A500014C05F934F93C701B6010E94674F7F93B5
:105A60006F9384E390E29F938F930E9407160F90A9
:105A70000F900F900F900F900F908091DE05811185
:105A800002C00E94992B8091170F80FF5BC080910C
:105A900031069091320608970CF054C08091710045
:105AA000877F8093710080916F00877F80936F0064
:105AB0008091F00581110E940A2C81E08093EF050E
:105AC0001092DD051092DC0520E030E0A901C7014D
:105AD000B6010E9476501816DCF480913106909140
